{
	"MiniSocial.sol": {
		"MiniSocial": {
			"abi": [
				{
					"inputs": [
						{
							"internalType": "uint256",
							"name": "index",
							"type": "uint256"
						}
					],
					"name": "getPost",
					"outputs": [
						{
							"internalType": "string",
							"name": "",
							"type": "string"
						},
						{
							"internalType": "address",
							"name": "",
							"type": "address"
						}
					],
					"stateMutability": "view",
					"type": "function"
				},
				{
					"inputs": [],
					"name": "getTotalPosts",
					"outputs": [
						{
							"internalType": "uint256",
							"name": "",
							"type": "uint256"
						}
					],
					"stateMutability": "view",
					"type": "function"
				},
				{
					"inputs": [
						{
							"internalType": "uint256",
							"name": "",
							"type": "uint256"
						}
					],
					"name": "posts",
					"outputs": [
						{
							"internalType": "string",
							"name": "message",
							"type": "string"
						},
						{
							"internalType": "address",
							"name": "author",
							"type": "address"
						}
					],
					"stateMutability": "view",
					"type": "function"
				},
				{
					"inputs": [
						{
							"internalType": "string",
							"name": "_message",
							"type": "string"
						}
					],
					"name": "publishPost",
					"outputs": [],
					"stateMutability": "nonpayable",
					"type": "function"
				}
			],
			"devdoc": {
				"kind": "dev",
				"methods": {},
				"version": 1
			},
			"evm": {
				"assembly": "    /* \"MiniSocial.sol\":61:1071  contract MiniSocial{... */\n  mstore(0x40, 0x80)\n  callvalue\n  dup1\n  iszero\n  tag_1\n  jumpi\n  0x00\n  dup1\n  revert\ntag_1:\n  pop\n  dataSize(sub_0)\n  dup1\n  dataOffset(sub_0)\n  0x00\n  codecopy\n  0x00\n  return\nstop\n\nsub_0: assembly {\n        /* \"MiniSocial.sol\":61:1071  contract MiniSocial{... */\n      mstore(0x40, 0x80)\n      callvalue\n      dup1\n      iszero\n      tag_1\n      jumpi\n      0x00\n      dup1\n      revert\n    tag_1:\n      pop\n      jumpi(tag_2, lt(calldatasize, 0x04))\n      shr(0xe0, calldataload(0x00))\n      dup1\n      0x0b1e7f83\n      eq\n      tag_3\n      jumpi\n      dup1\n      0x40731c24\n      eq\n      tag_4\n      jumpi\n      dup1\n      0x5fe226b4\n      eq\n      tag_5\n      jumpi\n      dup1\n      0xc5719463\n      eq\n      tag_6\n      jumpi\n    tag_2:\n      0x00\n      dup1\n      revert\n        /* \"MiniSocial.sol\":364:383  Post[] public posts */\n    tag_3:\n      tag_7\n      0x04\n      dup1\n      calldatasize\n      sub\n      dup2\n      add\n      swap1\n      tag_8\n      swap2\n      swap1\n      tag_9\n      jump\t// in\n    tag_8:\n      tag_10\n      jump\t// in\n    tag_7:\n      mload(0x40)\n      tag_11\n      swap3\n      swap2\n      swap1\n      tag_12\n      jump\t// in\n    tag_11:\n      mload(0x40)\n      dup1\n      swap2\n      sub\n      swap1\n      return\n        /* \"MiniSocial.sol\":714:881  function getPost(uint index) public view returns (string memory, address){... */\n    tag_4:\n      tag_13\n      0x04\n      dup1\n      calldatasize\n      sub\n      dup2\n      add\n      swap1\n      tag_14\n      swap2\n      swap1\n      tag_9\n      jump\t// in\n    tag_14:\n      tag_15\n      jump\t// in\n    tag_13:\n      mload(0x40)\n      tag_16\n      swap3\n      swap2\n      swap1\n      tag_12\n      jump\t// in\n    tag_16:\n      mload(0x40)\n      dup1\n      swap2\n      sub\n      swap1\n      return\n        /* \"MiniSocial.sol\":979:1068  function getTotalPosts() public view returns (uint){... */\n    tag_5:\n      tag_17\n      tag_18\n      jump\t// in\n    tag_17:\n      mload(0x40)\n      tag_19\n      swap2\n      swap1\n      tag_20\n      jump\t// in\n    tag_19:\n      mload(0x40)\n      dup1\n      swap2\n      sub\n      swap1\n      return\n        /* \"MiniSocial.sol\":451:649  function publishPost(string memory _message) public{... */\n    tag_6:\n      tag_21\n      0x04\n      dup1\n      calldatasize\n      sub\n      dup2\n      add\n      swap1\n      tag_22\n      swap2\n      swap1\n      tag_23\n      jump\t// in\n    tag_22:\n      tag_24\n      jump\t// in\n    tag_21:\n      stop\n        /* \"MiniSocial.sol\":364:383  Post[] public posts */\n    tag_10:\n      0x00\n      dup2\n      dup2\n      sload\n      dup2\n      lt\n      tag_25\n      jumpi\n      0x00\n      dup1\n      revert\n    tag_25:\n      swap1\n      0x00\n      mstore\n      keccak256(0x00, 0x20)\n      swap1\n      0x02\n      mul\n      add\n      0x00\n      swap2\n      pop\n      swap1\n      pop\n      dup1\n      0x00\n      add\n      dup1\n      sload\n      tag_27\n      swap1\n      tag_28\n      jump\t// in\n    tag_27:\n      dup1\n      0x1f\n      add\n      0x20\n      dup1\n      swap2\n      div\n      mul\n      0x20\n      add\n      mload(0x40)\n      swap1\n      dup2\n      add\n      0x40\n      mstore\n      dup1\n      swap3\n      swap2\n      swap1\n      dup2\n      dup2\n      mstore\n      0x20\n      add\n      dup3\n      dup1\n      sload\n      tag_29\n      swap1\n      tag_28\n      jump\t// in\n    tag_29:\n      dup1\n      iszero\n      tag_30\n      jumpi\n      dup1\n      0x1f\n      lt\n      tag_31\n      jumpi\n      0x0100\n      dup1\n      dup4\n      sload\n      div\n      mul\n      dup4\n      mstore\n      swap2\n      0x20\n      add\n      swap2\n      jump(tag_30)\n    tag_31:\n      dup3\n      add\n      swap2\n      swap1\n      0x00\n      mstore\n      keccak256(0x00, 0x20)\n      swap1\n    tag_32:\n      dup2\n      sload\n      dup2\n      mstore\n      swap1\n      0x01\n      add\n      swap1\n      0x20\n      add\n      dup1\n      dup4\n      gt\n      tag_32\n      jumpi\n      dup3\n      swap1\n      sub\n      0x1f\n      and\n      dup3\n      add\n      swap2\n    tag_30:\n      pop\n      pop\n      pop\n      pop\n      pop\n      swap1\n      dup1\n      0x01\n      add\n      0x00\n      swap1\n      sload\n      swap1\n      0x0100\n      exp\n      swap1\n      div\n      0xffffffffffffffffffffffffffffffffffffffff\n      and\n      swap1\n      pop\n      dup3\n      jump\t// out\n        /* \"MiniSocial.sol\":714:881  function getPost(uint index) public view returns (string memory, address){... */\n    tag_15:\n        /* \"MiniSocial.sol\":764:777  string memory */\n      0x60\n        /* \"MiniSocial.sol\":779:786  address */\n      0x00\n        /* \"MiniSocial.sol\":798:815  Post storage post */\n      dup1\n        /* \"MiniSocial.sol\":817:822  posts */\n      0x00\n        /* \"MiniSocial.sol\":823:828  index */\n      dup5\n        /* \"MiniSocial.sol\":817:829  posts[index] */\n      dup2\n      sload\n      dup2\n      lt\n      tag_34\n      jumpi\n      tag_35\n      tag_36\n      jump\t// in\n    tag_35:\n    tag_34:\n      swap1\n      0x00\n      mstore\n      keccak256(0x00, 0x20)\n      swap1\n      0x02\n      mul\n      add\n        /* \"MiniSocial.sol\":798:829  Post storage post =posts[index] */\n      swap1\n      pop\n        /* \"MiniSocial.sol\":848:852  post */\n      dup1\n        /* \"MiniSocial.sol\":848:860  post.message */\n      0x00\n      add\n        /* \"MiniSocial.sol\":861:865  post */\n      dup2\n        /* \"MiniSocial.sol\":861:872  post.author */\n      0x01\n      add\n      0x00\n      swap1\n      sload\n      swap1\n      0x0100\n      exp\n      swap1\n      div\n      0xffffffffffffffffffffffffffffffffffffffff\n      and\n        /* \"MiniSocial.sol\":840:873  return (post.message,post.author) */\n      dup2\n      dup1\n      sload\n      tag_38\n      swap1\n      tag_28\n      jump\t// in\n    tag_38:\n      dup1\n      0x1f\n      add\n      0x20\n      dup1\n      swap2\n      div\n      mul\n      0x20\n      add\n      mload(0x40)\n      swap1\n      dup2\n      add\n      0x40\n      mstore\n      dup1\n      swap3\n      swap2\n      swap1\n      dup2\n      dup2\n      mstore\n      0x20\n      add\n      dup3\n      dup1\n      sload\n      tag_39\n      swap1\n      tag_28\n      jump\t// in\n    tag_39:\n      dup1\n      iszero\n      tag_40\n      jumpi\n      dup1\n      0x1f\n      lt\n      tag_41\n      jumpi\n      0x0100\n      dup1\n      dup4\n      sload\n      div\n      mul\n      dup4\n      mstore\n      swap2\n      0x20\n      add\n      swap2\n      jump(tag_40)\n    tag_41:\n      dup3\n      add\n      swap2\n      swap1\n      0x00\n      mstore\n      keccak256(0x00, 0x20)\n      swap1\n    tag_42:\n      dup2\n      sload\n      dup2\n      mstore\n      swap1\n      0x01\n      add\n      swap1\n      0x20\n      add\n      dup1\n      dup4\n      gt\n      tag_42\n      jumpi\n      dup3\n      swap1\n      sub\n      0x1f\n      and\n      dup3\n      add\n      swap2\n    tag_40:\n      pop\n      pop\n      pop\n      pop\n      pop\n      swap2\n      pop\n      swap3\n      pop\n      swap3\n      pop\n      pop\n        /* \"MiniSocial.sol\":714:881  function getPost(uint index) public view returns (string memory, address){... */\n      swap2\n      pop\n      swap2\n      jump\t// out\n        /* \"MiniSocial.sol\":979:1068  function getTotalPosts() public view returns (uint){... */\n    tag_18:\n        /* \"MiniSocial.sol\":1025:1029  uint */\n      0x00\n        /* \"MiniSocial.sol\":1048:1053  posts */\n      dup1\n        /* \"MiniSocial.sol\":1048:1060  posts.length */\n      dup1\n      sload\n      swap1\n      pop\n        /* \"MiniSocial.sol\":1041:1060  return posts.length */\n      swap1\n      pop\n        /* \"MiniSocial.sol\":979:1068  function getTotalPosts() public view returns (uint){... */\n      swap1\n      jump\t// out\n        /* \"MiniSocial.sol\":451:649  function publishPost(string memory _message) public{... */\n    tag_24:\n        /* \"MiniSocial.sol\":513:533  Post memory new_post */\n      0x00\n        /* \"MiniSocial.sol\":536:614  Post({... */\n      mload(0x40)\n      dup1\n      0x40\n      add\n      0x40\n      mstore\n      dup1\n        /* \"MiniSocial.sol\":565:573  _message */\n      dup4\n        /* \"MiniSocial.sol\":536:614  Post({... */\n      dup2\n      mstore\n      0x20\n      add\n        /* \"MiniSocial.sol\":596:606  msg.sender */\n      caller\n        /* \"MiniSocial.sol\":536:614  Post({... */\n      0xffffffffffffffffffffffffffffffffffffffff\n      and\n      dup2\n      mstore\n      pop\n        /* \"MiniSocial.sol\":513:614  Post memory new_post = Post({... */\n      swap1\n      pop\n        /* \"MiniSocial.sol\":621:626  posts */\n      0x00\n        /* \"MiniSocial.sol\":632:640  new_post */\n      dup2\n        /* \"MiniSocial.sol\":621:641  posts.push(new_post) */\n      swap1\n      dup1\n      0x01\n      dup2\n      sload\n      add\n      dup1\n      dup3\n      sstore\n      dup1\n      swap2\n      pop\n      pop\n      0x01\n      swap1\n      sub\n      swap1\n      0x00\n      mstore\n      keccak256(0x00, 0x20)\n      swap1\n      0x02\n      mul\n      add\n      0x00\n      swap1\n      swap2\n      swap1\n      swap2\n      swap1\n      swap2\n      pop\n      0x00\n      dup3\n      add\n      mload\n      dup2\n      0x00\n      add\n      swap1\n      dup2\n      tag_46\n      swap2\n      swap1\n      tag_47\n      jump\t// in\n    tag_46:\n      pop\n      0x20\n      dup3\n      add\n      mload\n      dup2\n      0x01\n      add\n      exp(0x0100, 0x00)\n      dup2\n      sload\n      dup2\n      0xffffffffffffffffffffffffffffffffffffffff\n      mul\n      not\n      and\n      swap1\n      dup4\n      0xffffffffffffffffffffffffffffffffffffffff\n      and\n      mul\n      or\n      swap1\n      sstore\n      pop\n      pop\n      pop\n        /* \"MiniSocial.sol\":502:649  {... */\n      pop\n        /* \"MiniSocial.sol\":451:649  function publishPost(string memory _message) public{... */\n      pop\n      jump\t// out\n        /* \"#utility.yul\":7:82   */\n    tag_48:\n        /* \"#utility.yul\":40:46   */\n      0x00\n        /* \"#utility.yul\":73:75   */\n      0x40\n        /* \"#utility.yul\":67:76   */\n      mload\n        /* \"#utility.yul\":57:76   */\n      swap1\n      pop\n        /* \"#utility.yul\":7:82   */\n      swap1\n      jump\t// out\n        /* \"#utility.yul\":88:205   */\n    tag_49:\n        /* \"#utility.yul\":197:198   */\n      0x00\n        /* \"#utility.yul\":194:195   */\n      dup1\n        /* \"#utility.yul\":187:199   */\n      revert\n        /* \"#utility.yul\":211:328   */\n    tag_50:\n        /* \"#utility.yul\":320:321   */\n      0x00\n        /* \"#utility.yul\":317:318   */\n      dup1\n        /* \"#utility.yul\":310:322   */\n      revert\n        /* \"#utility.yul\":334:411   */\n    tag_51:\n        /* \"#utility.yul\":371:378   */\n      0x00\n        /* \"#utility.yul\":400:405   */\n      dup2\n        /* \"#utility.yul\":389:405   */\n      swap1\n      pop\n        /* \"#utility.yul\":334:411   */\n      swap2\n      swap1\n      pop\n      jump\t// out\n        /* \"#utility.yul\":417:539   */\n    tag_52:\n        /* \"#utility.yul\":490:514   */\n      tag_94\n        /* \"#utility.yul\":508:513   */\n      dup2\n        /* \"#utility.yul\":490:514   */\n      tag_51\n      jump\t// in\n    tag_94:\n        /* \"#utility.yul\":483:488   */\n      dup2\n        /* \"#utility.yul\":480:515   */\n      eq\n        /* \"#utility.yul\":470:533   */\n      tag_95\n      jumpi\n        /* \"#utility.yul\":529:530   */\n      0x00\n        /* \"#utility.yul\":526:527   */\n      dup1\n        /* \"#utility.yul\":519:531   */\n      revert\n        /* \"#utility.yul\":470:533   */\n    tag_95:\n        /* \"#utility.yul\":417:539   */\n      pop\n      jump\t// out\n        /* \"#utility.yul\":545:684   */\n    tag_53:\n        /* \"#utility.yul\":591:596   */\n      0x00\n        /* \"#utility.yul\":629:635   */\n      dup2\n        /* \"#utility.yul\":616:636   */\n      calldataload\n        /* \"#utility.yul\":607:636   */\n      swap1\n      pop\n        /* \"#utility.yul\":645:678   */\n      tag_97\n        /* \"#utility.yul\":672:677   */\n      dup2\n        /* \"#utility.yul\":645:678   */\n      tag_52\n      jump\t// in\n    tag_97:\n        /* \"#utility.yul\":545:684   */\n      swap3\n      swap2\n      pop\n      pop\n      jump\t// out\n        /* \"#utility.yul\":690:1019   */\n    tag_9:\n        /* \"#utility.yul\":749:755   */\n      0x00\n        /* \"#utility.yul\":798:800   */\n      0x20\n        /* \"#utility.yul\":786:795   */\n      dup3\n        /* \"#utility.yul\":777:784   */\n      dup5\n        /* \"#utility.yul\":773:796   */\n      sub\n        /* \"#utility.yul\":769:801   */\n      slt\n        /* \"#utility.yul\":766:885   */\n      iszero\n      tag_99\n      jumpi\n        /* \"#utility.yul\":804:883   */\n      tag_100\n      tag_49\n      jump\t// in\n    tag_100:\n        /* \"#utility.yul\":766:885   */\n    tag_99:\n        /* \"#utility.yul\":924:925   */\n      0x00\n        /* \"#utility.yul\":949:1002   */\n      tag_101\n        /* \"#utility.yul\":994:1001   */\n      dup5\n        /* \"#utility.yul\":985:991   */\n      dup3\n        /* \"#utility.yul\":974:983   */\n      dup6\n        /* \"#utility.yul\":970:992   */\n      add\n        /* \"#utility.yul\":949:1002   */\n      tag_53\n      jump\t// in\n    tag_101:\n        /* \"#utility.yul\":939:1002   */\n      swap2\n      pop\n        /* \"#utility.yul\":895:1012   */\n      pop\n        /* \"#utility.yul\":690:1019   */\n      swap3\n      swap2\n      pop\n      pop\n      jump\t// out\n        /* \"#utility.yul\":1025:1124   */\n    tag_54:\n        /* \"#utility.yul\":1077:1083   */\n      0x00\n        /* \"#utility.yul\":1111:1116   */\n      dup2\n        /* \"#utility.yul\":1105:1117   */\n      mload\n        /* \"#utility.yul\":1095:1117   */\n      swap1\n      pop\n        /* \"#utility.yul\":1025:1124   */\n      swap2\n      swap1\n      pop\n      jump\t// out\n        /* \"#utility.yul\":1130:1299   */\n    tag_55:\n        /* \"#utility.yul\":1214:1225   */\n      0x00\n        /* \"#utility.yul\":1248:1254   */\n      dup3\n        /* \"#utility.yul\":1243:1246   */\n      dup3\n        /* \"#utility.yul\":1236:1255   */\n      mstore\n        /* \"#utility.yul\":1288:1292   */\n      0x20\n        /* \"#utility.yul\":1283:1286   */\n      dup3\n        /* \"#utility.yul\":1279:1293   */\n      add\n        /* \"#utility.yul\":1264:1293   */\n      swap1\n      pop\n        /* \"#utility.yul\":1130:1299   */\n      swap3\n      swap2\n      pop\n      pop\n      jump\t// out\n        /* \"#utility.yul\":1305:1444   */\n    tag_56:\n        /* \"#utility.yul\":1394:1400   */\n      dup3\n        /* \"#utility.yul\":1389:1392   */\n      dup2\n        /* \"#utility.yul\":1384:1387   */\n      dup4\n        /* \"#utility.yul\":1378:1401   */\n      mcopy\n        /* \"#utility.yul\":1435:1436   */\n      0x00\n        /* \"#utility.yul\":1426:1432   */\n      dup4\n        /* \"#utility.yul\":1421:1424   */\n      dup4\n        /* \"#utility.yul\":1417:1433   */\n      add\n        /* \"#utility.yul\":1410:1437   */\n      mstore\n        /* \"#utility.yul\":1305:1444   */\n      pop\n      pop\n      pop\n      jump\t// out\n        /* \"#utility.yul\":1450:1552   */\n    tag_57:\n        /* \"#utility.yul\":1491:1497   */\n      0x00\n        /* \"#utility.yul\":1542:1544   */\n      0x1f\n        /* \"#utility.yul\":1538:1545   */\n      not\n        /* \"#utility.yul\":1533:1535   */\n      0x1f\n        /* \"#utility.yul\":1526:1531   */\n      dup4\n        /* \"#utility.yul\":1522:1536   */\n      add\n        /* \"#utility.yul\":1518:1546   */\n      and\n        /* \"#utility.yul\":1508:1546   */\n      swap1\n      pop\n        /* \"#utility.yul\":1450:1552   */\n      swap2\n      swap1\n      pop\n      jump\t// out\n        /* \"#utility.yul\":1558:1935   */\n    tag_58:\n        /* \"#utility.yul\":1646:1649   */\n      0x00\n        /* \"#utility.yul\":1674:1713   */\n      tag_107\n        /* \"#utility.yul\":1707:1712   */\n      dup3\n        /* \"#utility.yul\":1674:1713   */\n      tag_54\n      jump\t// in\n    tag_107:\n        /* \"#utility.yul\":1729:1800   */\n      tag_108\n        /* \"#utility.yul\":1793:1799   */\n      dup2\n        /* \"#utility.yul\":1788:1791   */\n      dup6\n        /* \"#utility.yul\":1729:1800   */\n      tag_55\n      jump\t// in\n    tag_108:\n        /* \"#utility.yul\":1722:1800   */\n      swap4\n      pop\n        /* \"#utility.yul\":1809:1874   */\n      tag_109\n        /* \"#utility.yul\":1867:1873   */\n      dup2\n        /* \"#utility.yul\":1862:1865   */\n      dup6\n        /* \"#utility.yul\":1855:1859   */\n      0x20\n        /* \"#utility.yul\":1848:1853   */\n      dup7\n        /* \"#utility.yul\":1844:1860   */\n      add\n        /* \"#utility.yul\":1809:1874   */\n      tag_56\n      jump\t// in\n    tag_109:\n        /* \"#utility.yul\":1899:1928   */\n      tag_110\n        /* \"#utility.yul\":1921:1927   */\n      dup2\n        /* \"#utility.yul\":1899:1928   */\n      tag_57\n      jump\t// in\n    tag_110:\n        /* \"#utility.yul\":1894:1897   */\n      dup5\n        /* \"#utility.yul\":1890:1929   */\n      add\n        /* \"#utility.yul\":1883:1929   */\n      swap2\n      pop\n        /* \"#utility.yul\":1650:1935   */\n      pop\n        /* \"#utility.yul\":1558:1935   */\n      swap3\n      swap2\n      pop\n      pop\n      jump\t// out\n        /* \"#utility.yul\":1941:2067   */\n    tag_59:\n        /* \"#utility.yul\":1978:1985   */\n      0x00\n        /* \"#utility.yul\":2018:2060   */\n      0xffffffffffffffffffffffffffffffffffffffff\n        /* \"#utility.yul\":2011:2016   */\n      dup3\n        /* \"#utility.yul\":2007:2061   */\n      and\n        /* \"#utility.yul\":1996:2061   */\n      swap1\n      pop\n        /* \"#utility.yul\":1941:2067   */\n      swap2\n      swap1\n      pop\n      jump\t// out\n        /* \"#utility.yul\":2073:2169   */\n    tag_60:\n        /* \"#utility.yul\":2110:2117   */\n      0x00\n        /* \"#utility.yul\":2139:2163   */\n      tag_113\n        /* \"#utility.yul\":2157:2162   */\n      dup3\n        /* \"#utility.yul\":2139:2163   */\n      tag_59\n      jump\t// in\n    tag_113:\n        /* \"#utility.yul\":2128:2163   */\n      swap1\n      pop\n        /* \"#utility.yul\":2073:2169   */\n      swap2\n      swap1\n      pop\n      jump\t// out\n        /* \"#utility.yul\":2175:2293   */\n    tag_61:\n        /* \"#utility.yul\":2262:2286   */\n      tag_115\n        /* \"#utility.yul\":2280:2285   */\n      dup2\n        /* \"#utility.yul\":2262:2286   */\n      tag_60\n      jump\t// in\n    tag_115:\n        /* \"#utility.yul\":2257:2260   */\n      dup3\n        /* \"#utility.yul\":2250:2287   */\n      mstore\n        /* \"#utility.yul\":2175:2293   */\n      pop\n      pop\n      jump\t// out\n        /* \"#utility.yul\":2299:2722   */\n    tag_12:\n        /* \"#utility.yul\":2440:2444   */\n      0x00\n        /* \"#utility.yul\":2478:2480   */\n      0x40\n        /* \"#utility.yul\":2467:2476   */\n      dup3\n        /* \"#utility.yul\":2463:2481   */\n      add\n        /* \"#utility.yul\":2455:2481   */\n      swap1\n      pop\n        /* \"#utility.yul\":2527:2536   */\n      dup2\n        /* \"#utility.yul\":2521:2525   */\n      dup2\n        /* \"#utility.yul\":2517:2537   */\n      sub\n        /* \"#utility.yul\":2513:2514   */\n      0x00\n        /* \"#utility.yul\":2502:2511   */\n      dup4\n        /* \"#utility.yul\":2498:2515   */\n      add\n        /* \"#utility.yul\":2491:2538   */\n      mstore\n        /* \"#utility.yul\":2555:2633   */\n      tag_117\n        /* \"#utility.yul\":2628:2632   */\n      dup2\n        /* \"#utility.yul\":2619:2625   */\n      dup6\n        /* \"#utility.yul\":2555:2633   */\n      tag_58\n      jump\t// in\n    tag_117:\n        /* \"#utility.yul\":2547:2633   */\n      swap1\n      pop\n        /* \"#utility.yul\":2643:2715   */\n      tag_118\n        /* \"#utility.yul\":2711:2713   */\n      0x20\n        /* \"#utility.yul\":2700:2709   */\n      dup4\n        /* \"#utility.yul\":2696:2714   */\n      add\n        /* \"#utility.yul\":2687:2693   */\n      dup5\n        /* \"#utility.yul\":2643:2715   */\n      tag_61\n      jump\t// in\n    tag_118:\n        /* \"#utility.yul\":2299:2722   */\n      swap4\n      swap3\n      pop\n      pop\n      pop\n      jump\t// out\n        /* \"#utility.yul\":2728:2846   */\n    tag_62:\n        /* \"#utility.yul\":2815:2839   */\n      tag_120\n        /* \"#utility.yul\":2833:2838   */\n      dup2\n        /* \"#utility.yul\":2815:2839   */\n      tag_51\n      jump\t// in\n    tag_120:\n        /* \"#utility.yul\":2810:2813   */\n      dup3\n        /* \"#utility.yul\":2803:2840   */\n      mstore\n        /* \"#utility.yul\":2728:2846   */\n      pop\n      pop\n      jump\t// out\n        /* \"#utility.yul\":2852:3074   */\n    tag_20:\n        /* \"#utility.yul\":2945:2949   */\n      0x00\n        /* \"#utility.yul\":2983:2985   */\n      0x20\n        /* \"#utility.yul\":2972:2981   */\n      dup3\n        /* \"#utility.yul\":2968:2986   */\n      add\n        /* \"#utility.yul\":2960:2986   */\n      swap1\n      pop\n        /* \"#utility.yul\":2996:3067   */\n      tag_122\n        /* \"#utility.yul\":3064:3065   */\n      0x00\n        /* \"#utility.yul\":3053:3062   */\n      dup4\n        /* \"#utility.yul\":3049:3066   */\n      add\n        /* \"#utility.yul\":3040:3046   */\n      dup5\n        /* \"#utility.yul\":2996:3067   */\n      tag_62\n      jump\t// in\n    tag_122:\n        /* \"#utility.yul\":2852:3074   */\n      swap3\n      swap2\n      pop\n      pop\n      jump\t// out\n        /* \"#utility.yul\":3080:3197   */\n    tag_63:\n        /* \"#utility.yul\":3189:3190   */\n      0x00\n        /* \"#utility.yul\":3186:3187   */\n      dup1\n        /* \"#utility.yul\":3179:3191   */\n      revert\n        /* \"#utility.yul\":3203:3320   */\n    tag_64:\n        /* \"#utility.yul\":3312:3313   */\n      0x00\n        /* \"#utility.yul\":3309:3310   */\n      dup1\n        /* \"#utility.yul\":3302:3314   */\n      revert\n        /* \"#utility.yul\":3326:3506   */\n    tag_65:\n        /* \"#utility.yul\":3374:3451   */\n      0x4e487b7100000000000000000000000000000000000000000000000000000000\n        /* \"#utility.yul\":3371:3372   */\n      0x00\n        /* \"#utility.yul\":3364:3452   */\n      mstore\n        /* \"#utility.yul\":3471:3475   */\n      0x41\n        /* \"#utility.yul\":3468:3469   */\n      0x04\n        /* \"#utility.yul\":3461:3476   */\n      mstore\n        /* \"#utility.yul\":3495:3499   */\n      0x24\n        /* \"#utility.yul\":3492:3493   */\n      0x00\n        /* \"#utility.yul\":3485:3500   */\n      revert\n        /* \"#utility.yul\":3512:3793   */\n    tag_66:\n        /* \"#utility.yul\":3595:3622   */\n      tag_127\n        /* \"#utility.yul\":3617:3621   */\n      dup3\n        /* \"#utility.yul\":3595:3622   */\n      tag_57\n      jump\t// in\n    tag_127:\n        /* \"#utility.yul\":3587:3593   */\n      dup2\n        /* \"#utility.yul\":3583:3623   */\n      add\n        /* \"#utility.yul\":3725:3731   */\n      dup2\n        /* \"#utility.yul\":3713:3723   */\n      dup2\n        /* \"#utility.yul\":3710:3732   */\n      lt\n        /* \"#utility.yul\":3689:3707   */\n      0xffffffffffffffff\n        /* \"#utility.yul\":3677:3687   */\n      dup3\n        /* \"#utility.yul\":3674:3708   */\n      gt\n        /* \"#utility.yul\":3671:3733   */\n      or\n        /* \"#utility.yul\":3668:3756   */\n      iszero\n      tag_128\n      jumpi\n        /* \"#utility.yul\":3736:3754   */\n      tag_129\n      tag_65\n      jump\t// in\n    tag_129:\n        /* \"#utility.yul\":3668:3756   */\n    tag_128:\n        /* \"#utility.yul\":3776:3786   */\n      dup1\n        /* \"#utility.yul\":3772:3774   */\n      0x40\n        /* \"#utility.yul\":3765:3787   */\n      mstore\n        /* \"#utility.yul\":3555:3793   */\n      pop\n        /* \"#utility.yul\":3512:3793   */\n      pop\n      pop\n      jump\t// out\n        /* \"#utility.yul\":3799:3928   */\n    tag_67:\n        /* \"#utility.yul\":3833:3839   */\n      0x00\n        /* \"#utility.yul\":3860:3880   */\n      tag_131\n      tag_48\n      jump\t// in\n    tag_131:\n        /* \"#utility.yul\":3850:3880   */\n      swap1\n      pop\n        /* \"#utility.yul\":3889:3922   */\n      tag_132\n        /* \"#utility.yul\":3917:3921   */\n      dup3\n        /* \"#utility.yul\":3909:3915   */\n      dup3\n        /* \"#utility.yul\":3889:3922   */\n      tag_66\n      jump\t// in\n    tag_132:\n        /* \"#utility.yul\":3799:3928   */\n      swap2\n      swap1\n      pop\n      jump\t// out\n        /* \"#utility.yul\":3934:4242   */\n    tag_68:\n        /* \"#utility.yul\":3996:4000   */\n      0x00\n        /* \"#utility.yul\":4086:4104   */\n      0xffffffffffffffff\n        /* \"#utility.yul\":4078:4084   */\n      dup3\n        /* \"#utility.yul\":4075:4105   */\n      gt\n        /* \"#utility.yul\":4072:4128   */\n      iszero\n      tag_134\n      jumpi\n        /* \"#utility.yul\":4108:4126   */\n      tag_135\n      tag_65\n      jump\t// in\n    tag_135:\n        /* \"#utility.yul\":4072:4128   */\n    tag_134:\n        /* \"#utility.yul\":4146:4175   */\n      tag_136\n        /* \"#utility.yul\":4168:4174   */\n      dup3\n        /* \"#utility.yul\":4146:4175   */\n      tag_57\n      jump\t// in\n    tag_136:\n        /* \"#utility.yul\":4138:4175   */\n      swap1\n      pop\n        /* \"#utility.yul\":4230:4234   */\n      0x20\n        /* \"#utility.yul\":4224:4228   */\n      dup2\n        /* \"#utility.yul\":4220:4235   */\n      add\n        /* \"#utility.yul\":4212:4235   */\n      swap1\n      pop\n        /* \"#utility.yul\":3934:4242   */\n      swap2\n      swap1\n      pop\n      jump\t// out\n        /* \"#utility.yul\":4248:4396   */\n    tag_69:\n        /* \"#utility.yul\":4346:4352   */\n      dup3\n        /* \"#utility.yul\":4341:4344   */\n      dup2\n        /* \"#utility.yul\":4336:4339   */\n      dup4\n        /* \"#utility.yul\":4323:4353   */\n      calldatacopy\n        /* \"#utility.yul\":4387:4388   */\n      0x00\n        /* \"#utility.yul\":4378:4384   */\n      dup4\n        /* \"#utility.yul\":4373:4376   */\n      dup4\n        /* \"#utility.yul\":4369:4385   */\n      add\n        /* \"#utility.yul\":4362:4389   */\n      mstore\n        /* \"#utility.yul\":4248:4396   */\n      pop\n      pop\n      pop\n      jump\t// out\n        /* \"#utility.yul\":4402:4827   */\n    tag_70:\n        /* \"#utility.yul\":4480:4485   */\n      0x00\n        /* \"#utility.yul\":4505:4571   */\n      tag_139\n        /* \"#utility.yul\":4521:4570   */\n      tag_140\n        /* \"#utility.yul\":4563:4569   */\n      dup5\n        /* \"#utility.yul\":4521:4570   */\n      tag_68\n      jump\t// in\n    tag_140:\n        /* \"#utility.yul\":4505:4571   */\n      tag_67\n      jump\t// in\n    tag_139:\n        /* \"#utility.yul\":4496:4571   */\n      swap1\n      pop\n        /* \"#utility.yul\":4594:4600   */\n      dup3\n        /* \"#utility.yul\":4587:4592   */\n      dup2\n        /* \"#utility.yul\":4580:4601   */\n      mstore\n        /* \"#utility.yul\":4632:4636   */\n      0x20\n        /* \"#utility.yul\":4625:4630   */\n      dup2\n        /* \"#utility.yul\":4621:4637   */\n      add\n        /* \"#utility.yul\":4670:4673   */\n      dup5\n        /* \"#utility.yul\":4661:4667   */\n      dup5\n        /* \"#utility.yul\":4656:4659   */\n      dup5\n        /* \"#utility.yul\":4652:4668   */\n      add\n        /* \"#utility.yul\":4649:4674   */\n      gt\n        /* \"#utility.yul\":4646:4758   */\n      iszero\n      tag_141\n      jumpi\n        /* \"#utility.yul\":4677:4756   */\n      tag_142\n      tag_64\n      jump\t// in\n    tag_142:\n        /* \"#utility.yul\":4646:4758   */\n    tag_141:\n        /* \"#utility.yul\":4767:4821   */\n      tag_143\n        /* \"#utility.yul\":4814:4820   */\n      dup5\n        /* \"#utility.yul\":4809:4812   */\n      dup3\n        /* \"#utility.yul\":4804:4807   */\n      dup6\n        /* \"#utility.yul\":4767:4821   */\n      tag_69\n      jump\t// in\n    tag_143:\n        /* \"#utility.yul\":4486:4827   */\n      pop\n        /* \"#utility.yul\":4402:4827   */\n      swap4\n      swap3\n      pop\n      pop\n      pop\n      jump\t// out\n        /* \"#utility.yul\":4847:5187   */\n    tag_71:\n        /* \"#utility.yul\":4903:4908   */\n      0x00\n        /* \"#utility.yul\":4952:4955   */\n      dup3\n        /* \"#utility.yul\":4945:4949   */\n      0x1f\n        /* \"#utility.yul\":4937:4943   */\n      dup4\n        /* \"#utility.yul\":4933:4950   */\n      add\n        /* \"#utility.yul\":4929:4956   */\n      slt\n        /* \"#utility.yul\":4919:5041   */\n      tag_145\n      jumpi\n        /* \"#utility.yul\":4960:5039   */\n      tag_146\n      tag_63\n      jump\t// in\n    tag_146:\n        /* \"#utility.yul\":4919:5041   */\n    tag_145:\n        /* \"#utility.yul\":5077:5083   */\n      dup2\n        /* \"#utility.yul\":5064:5084   */\n      calldataload\n        /* \"#utility.yul\":5102:5181   */\n      tag_147\n        /* \"#utility.yul\":5177:5180   */\n      dup5\n        /* \"#utility.yul\":5169:5175   */\n      dup3\n        /* \"#utility.yul\":5162:5166   */\n      0x20\n        /* \"#utility.yul\":5154:5160   */\n      dup7\n        /* \"#utility.yul\":5150:5167   */\n      add\n        /* \"#utility.yul\":5102:5181   */\n      tag_70\n      jump\t// in\n    tag_147:\n        /* \"#utility.yul\":5093:5181   */\n      swap2\n      pop\n        /* \"#utility.yul\":4909:5187   */\n      pop\n        /* \"#utility.yul\":4847:5187   */\n      swap3\n      swap2\n      pop\n      pop\n      jump\t// out\n        /* \"#utility.yul\":5193:5702   */\n    tag_23:\n        /* \"#utility.yul\":5262:5268   */\n      0x00\n        /* \"#utility.yul\":5311:5313   */\n      0x20\n        /* \"#utility.yul\":5299:5308   */\n      dup3\n        /* \"#utility.yul\":5290:5297   */\n      dup5\n        /* \"#utility.yul\":5286:5309   */\n      sub\n        /* \"#utility.yul\":5282:5314   */\n      slt\n        /* \"#utility.yul\":5279:5398   */\n      iszero\n      tag_149\n      jumpi\n        /* \"#utility.yul\":5317:5396   */\n      tag_150\n      tag_49\n      jump\t// in\n    tag_150:\n        /* \"#utility.yul\":5279:5398   */\n    tag_149:\n        /* \"#utility.yul\":5465:5466   */\n      0x00\n        /* \"#utility.yul\":5454:5463   */\n      dup3\n        /* \"#utility.yul\":5450:5467   */\n      add\n        /* \"#utility.yul\":5437:5468   */\n      calldataload\n        /* \"#utility.yul\":5495:5513   */\n      0xffffffffffffffff\n        /* \"#utility.yul\":5487:5493   */\n      dup2\n        /* \"#utility.yul\":5484:5514   */\n      gt\n        /* \"#utility.yul\":5481:5598   */\n      iszero\n      tag_151\n      jumpi\n        /* \"#utility.yul\":5517:5596   */\n      tag_152\n      tag_50\n      jump\t// in\n    tag_152:\n        /* \"#utility.yul\":5481:5598   */\n    tag_151:\n        /* \"#utility.yul\":5622:5685   */\n      tag_153\n        /* \"#utility.yul\":5677:5684   */\n      dup5\n        /* \"#utility.yul\":5668:5674   */\n      dup3\n        /* \"#utility.yul\":5657:5666   */\n      dup6\n        /* \"#utility.yul\":5653:5675   */\n      add\n        /* \"#utility.yul\":5622:5685   */\n      tag_71\n      jump\t// in\n    tag_153:\n        /* \"#utility.yul\":5612:5685   */\n      swap2\n      pop\n        /* \"#utility.yul\":5408:5695   */\n      pop\n        /* \"#utility.yul\":5193:5702   */\n      swap3\n      swap2\n      pop\n      pop\n      jump\t// out\n        /* \"#utility.yul\":5708:5888   */\n    tag_72:\n        /* \"#utility.yul\":5756:5833   */\n      0x4e487b7100000000000000000000000000000000000000000000000000000000\n        /* \"#utility.yul\":5753:5754   */\n      0x00\n        /* \"#utility.yul\":5746:5834   */\n      mstore\n        /* \"#utility.yul\":5853:5857   */\n      0x22\n        /* \"#utility.yul\":5850:5851   */\n      0x04\n        /* \"#utility.yul\":5843:5858   */\n      mstore\n        /* \"#utility.yul\":5877:5881   */\n      0x24\n        /* \"#utility.yul\":5874:5875   */\n      0x00\n        /* \"#utility.yul\":5867:5882   */\n      revert\n        /* \"#utility.yul\":5894:6214   */\n    tag_28:\n        /* \"#utility.yul\":5938:5944   */\n      0x00\n        /* \"#utility.yul\":5975:5976   */\n      0x02\n        /* \"#utility.yul\":5969:5973   */\n      dup3\n        /* \"#utility.yul\":5965:5977   */\n      div\n        /* \"#utility.yul\":5955:5977   */\n      swap1\n      pop\n        /* \"#utility.yul\":6022:6023   */\n      0x01\n        /* \"#utility.yul\":6016:6020   */\n      dup3\n        /* \"#utility.yul\":6012:6024   */\n      and\n        /* \"#utility.yul\":6043:6061   */\n      dup1\n        /* \"#utility.yul\":6033:6114   */\n      tag_156\n      jumpi\n        /* \"#utility.yul\":6099:6103   */\n      0x7f\n        /* \"#utility.yul\":6091:6097   */\n      dup3\n        /* \"#utility.yul\":6087:6104   */\n      and\n        /* \"#utility.yul\":6077:6104   */\n      swap2\n      pop\n        /* \"#utility.yul\":6033:6114   */\n    tag_156:\n        /* \"#utility.yul\":6161:6163   */\n      0x20\n        /* \"#utility.yul\":6153:6159   */\n      dup3\n        /* \"#utility.yul\":6150:6164   */\n      lt\n        /* \"#utility.yul\":6130:6148   */\n      dup2\n        /* \"#utility.yul\":6127:6165   */\n      sub\n        /* \"#utility.yul\":6124:6208   */\n      tag_157\n      jumpi\n        /* \"#utility.yul\":6180:6198   */\n      tag_158\n      tag_72\n      jump\t// in\n    tag_158:\n        /* \"#utility.yul\":6124:6208   */\n    tag_157:\n        /* \"#utility.yul\":5945:6214   */\n      pop\n        /* \"#utility.yul\":5894:6214   */\n      swap2\n      swap1\n      pop\n      jump\t// out\n        /* \"#utility.yul\":6220:6400   */\n    tag_36:\n        /* \"#utility.yul\":6268:6345   */\n      0x4e487b7100000000000000000000000000000000000000000000000000000000\n        /* \"#utility.yul\":6265:6266   */\n      0x00\n        /* \"#utility.yul\":6258:6346   */\n      mstore\n        /* \"#utility.yul\":6365:6369   */\n      0x32\n        /* \"#utility.yul\":6362:6363   */\n      0x04\n        /* \"#utility.yul\":6355:6370   */\n      mstore\n        /* \"#utility.yul\":6389:6393   */\n      0x24\n        /* \"#utility.yul\":6386:6387   */\n      0x00\n        /* \"#utility.yul\":6379:6394   */\n      revert\n        /* \"#utility.yul\":6406:6547   */\n    tag_73:\n        /* \"#utility.yul\":6455:6459   */\n      0x00\n        /* \"#utility.yul\":6478:6481   */\n      dup2\n        /* \"#utility.yul\":6470:6481   */\n      swap1\n      pop\n        /* \"#utility.yul\":6501:6504   */\n      dup2\n        /* \"#utility.yul\":6498:6499   */\n      0x00\n        /* \"#utility.yul\":6491:6505   */\n      mstore\n        /* \"#utility.yul\":6535:6539   */\n      0x20\n        /* \"#utility.yul\":6532:6533   */\n      0x00\n        /* \"#utility.yul\":6522:6540   */\n      keccak256\n        /* \"#utility.yul\":6514:6540   */\n      swap1\n      pop\n        /* \"#utility.yul\":6406:6547   */\n      swap2\n      swap1\n      pop\n      jump\t// out\n        /* \"#utility.yul\":6553:6646   */\n    tag_74:\n        /* \"#utility.yul\":6590:6596   */\n      0x00\n        /* \"#utility.yul\":6637:6639   */\n      0x20\n        /* \"#utility.yul\":6632:6634   */\n      0x1f\n        /* \"#utility.yul\":6625:6630   */\n      dup4\n        /* \"#utility.yul\":6621:6635   */\n      add\n        /* \"#utility.yul\":6617:6640   */\n      div\n        /* \"#utility.yul\":6607:6640   */\n      swap1\n      pop\n        /* \"#utility.yul\":6553:6646   */\n      swap2\n      swap1\n      pop\n      jump\t// out\n        /* \"#utility.yul\":6652:6759   */\n    tag_75:\n        /* \"#utility.yul\":6696:6704   */\n      0x00\n        /* \"#utility.yul\":6746:6751   */\n      dup3\n        /* \"#utility.yul\":6740:6744   */\n      dup3\n        /* \"#utility.yul\":6736:6752   */\n      shl\n        /* \"#utility.yul\":6715:6752   */\n      swap1\n      pop\n        /* \"#utility.yul\":6652:6759   */\n      swap3\n      swap2\n      pop\n      pop\n      jump\t// out\n        /* \"#utility.yul\":6765:7158   */\n    tag_76:\n        /* \"#utility.yul\":6834:6840   */\n      0x00\n        /* \"#utility.yul\":6884:6885   */\n      0x08\n        /* \"#utility.yul\":6872:6882   */\n      dup4\n        /* \"#utility.yul\":6868:6886   */\n      mul\n        /* \"#utility.yul\":6907:7004   */\n      tag_164\n        /* \"#utility.yul\":6937:7003   */\n      0xffffffffffffffffffffffffffffffffffffffffffffffffffffffffffffffff\n        /* \"#utility.yul\":6926:6935   */\n      dup3\n        /* \"#utility.yul\":6907:7004   */\n      tag_75\n      jump\t// in\n    tag_164:\n        /* \"#utility.yul\":7025:7064   */\n      tag_165\n        /* \"#utility.yul\":7055:7063   */\n      dup7\n        /* \"#utility.yul\":7044:7053   */\n      dup4\n        /* \"#utility.yul\":7025:7064   */\n      tag_75\n      jump\t// in\n    tag_165:\n        /* \"#utility.yul\":7013:7064   */\n      swap6\n      pop\n        /* \"#utility.yul\":7097:7101   */\n      dup1\n        /* \"#utility.yul\":7093:7102   */\n      not\n        /* \"#utility.yul\":7086:7091   */\n      dup5\n        /* \"#utility.yul\":7082:7103   */\n      and\n        /* \"#utility.yul\":7073:7103   */\n      swap4\n      pop\n        /* \"#utility.yul\":7146:7150   */\n      dup1\n        /* \"#utility.yul\":7136:7144   */\n      dup7\n        /* \"#utility.yul\":7132:7151   */\n      and\n        /* \"#utility.yul\":7125:7130   */\n      dup5\n        /* \"#utility.yul\":7122:7152   */\n      or\n        /* \"#utility.yul\":7112:7152   */\n      swap3\n      pop\n        /* \"#utility.yul\":6841:7158   */\n      pop\n      pop\n        /* \"#utility.yul\":6765:7158   */\n      swap4\n      swap3\n      pop\n      pop\n      pop\n      jump\t// out\n        /* \"#utility.yul\":7164:7224   */\n    tag_77:\n        /* \"#utility.yul\":7192:7195   */\n      0x00\n        /* \"#utility.yul\":7213:7218   */\n      dup2\n        /* \"#utility.yul\":7206:7218   */\n      swap1\n      pop\n        /* \"#utility.yul\":7164:7224   */\n      swap2\n      swap1\n      pop\n      jump\t// out\n        /* \"#utility.yul\":7230:7372   */\n    tag_78:\n        /* \"#utility.yul\":7280:7289   */\n      0x00\n        /* \"#utility.yul\":7313:7366   */\n      tag_168\n        /* \"#utility.yul\":7331:7365   */\n      tag_169\n        /* \"#utility.yul\":7340:7364   */\n      tag_170\n        /* \"#utility.yul\":7358:7363   */\n      dup5\n        /* \"#utility.yul\":7340:7364   */\n      tag_51\n      jump\t// in\n    tag_170:\n        /* \"#utility.yul\":7331:7365   */\n      tag_77\n      jump\t// in\n    tag_169:\n        /* \"#utility.yul\":7313:7366   */\n      tag_51\n      jump\t// in\n    tag_168:\n        /* \"#utility.yul\":7300:7366   */\n      swap1\n      pop\n        /* \"#utility.yul\":7230:7372   */\n      swap2\n      swap1\n      pop\n      jump\t// out\n        /* \"#utility.yul\":7378:7453   */\n    tag_79:\n        /* \"#utility.yul\":7421:7424   */\n      0x00\n        /* \"#utility.yul\":7442:7447   */\n      dup2\n        /* \"#utility.yul\":7435:7447   */\n      swap1\n      pop\n        /* \"#utility.yul\":7378:7453   */\n      swap2\n      swap1\n      pop\n      jump\t// out\n        /* \"#utility.yul\":7459:7728   */\n    tag_80:\n        /* \"#utility.yul\":7569:7608   */\n      tag_173\n        /* \"#utility.yul\":7600:7607   */\n      dup4\n        /* \"#utility.yul\":7569:7608   */\n      tag_78\n      jump\t// in\n    tag_173:\n        /* \"#utility.yul\":7630:7721   */\n      tag_174\n        /* \"#utility.yul\":7679:7720   */\n      tag_175\n        /* \"#utility.yul\":7703:7719   */\n      dup3\n        /* \"#utility.yul\":7679:7720   */\n      tag_79\n      jump\t// in\n    tag_175:\n        /* \"#utility.yul\":7671:7677   */\n      dup5\n        /* \"#utility.yul\":7664:7668   */\n      dup5\n        /* \"#utility.yul\":7658:7669   */\n      sload\n        /* \"#utility.yul\":7630:7721   */\n      tag_76\n      jump\t// in\n    tag_174:\n        /* \"#utility.yul\":7624:7628   */\n      dup3\n        /* \"#utility.yul\":7617:7722   */\n      sstore\n        /* \"#utility.yul\":7535:7728   */\n      pop\n        /* \"#utility.yul\":7459:7728   */\n      pop\n      pop\n      pop\n      jump\t// out\n        /* \"#utility.yul\":7734:7807   */\n    tag_81:\n        /* \"#utility.yul\":7779:7782   */\n      0x00\n        /* \"#utility.yul\":7734:7807   */\n      swap1\n      jump\t// out\n        /* \"#utility.yul\":7813:8002   */\n    tag_82:\n        /* \"#utility.yul\":7890:7922   */\n      tag_178\n      tag_81\n      jump\t// in\n    tag_178:\n        /* \"#utility.yul\":7931:7996   */\n      tag_179\n        /* \"#utility.yul\":7989:7995   */\n      dup2\n        /* \"#utility.yul\":7981:7987   */\n      dup5\n        /* \"#utility.yul\":7975:7979   */\n      dup5\n        /* \"#utility.yul\":7931:7996   */\n      tag_80\n      jump\t// in\n    tag_179:\n        /* \"#utility.yul\":7866:8002   */\n      pop\n        /* \"#utility.yul\":7813:8002   */\n      pop\n      pop\n      jump\t// out\n        /* \"#utility.yul\":8008:8194   */\n    tag_83:\n        /* \"#utility.yul\":8068:8188   */\n    tag_181:\n        /* \"#utility.yul\":8085:8088   */\n      dup2\n        /* \"#utility.yul\":8078:8083   */\n      dup2\n        /* \"#utility.yul\":8075:8089   */\n      lt\n        /* \"#utility.yul\":8068:8188   */\n      iszero\n      tag_183\n      jumpi\n        /* \"#utility.yul\":8139:8178   */\n      tag_184\n        /* \"#utility.yul\":8176:8177   */\n      0x00\n        /* \"#utility.yul\":8169:8174   */\n      dup3\n        /* \"#utility.yul\":8139:8178   */\n      tag_82\n      jump\t// in\n    tag_184:\n        /* \"#utility.yul\":8112:8113   */\n      0x01\n        /* \"#utility.yul\":8105:8110   */\n      dup2\n        /* \"#utility.yul\":8101:8114   */\n      add\n        /* \"#utility.yul\":8092:8114   */\n      swap1\n      pop\n        /* \"#utility.yul\":8068:8188   */\n      jump(tag_181)\n    tag_183:\n        /* \"#utility.yul\":8008:8194   */\n      pop\n      pop\n      jump\t// out\n        /* \"#utility.yul\":8200:8743   */\n    tag_84:\n        /* \"#utility.yul\":8301:8303   */\n      0x1f\n        /* \"#utility.yul\":8296:8299   */\n      dup3\n        /* \"#utility.yul\":8293:8304   */\n      gt\n        /* \"#utility.yul\":8290:8736   */\n      iszero\n      tag_186\n      jumpi\n        /* \"#utility.yul\":8335:8373   */\n      tag_187\n        /* \"#utility.yul\":8367:8372   */\n      dup2\n        /* \"#utility.yul\":8335:8373   */\n      tag_73\n      jump\t// in\n    tag_187:\n        /* \"#utility.yul\":8419:8448   */\n      tag_188\n        /* \"#utility.yul\":8437:8447   */\n      dup5\n        /* \"#utility.yul\":8419:8448   */\n      tag_74\n      jump\t// in\n    tag_188:\n        /* \"#utility.yul\":8409:8417   */\n      dup2\n        /* \"#utility.yul\":8405:8449   */\n      add\n        /* \"#utility.yul\":8602:8604   */\n      0x20\n        /* \"#utility.yul\":8590:8600   */\n      dup6\n        /* \"#utility.yul\":8587:8605   */\n      lt\n        /* \"#utility.yul\":8584:8633   */\n      iszero\n      tag_189\n      jumpi\n        /* \"#utility.yul\":8623:8631   */\n      dup2\n        /* \"#utility.yul\":8608:8631   */\n      swap1\n      pop\n        /* \"#utility.yul\":8584:8633   */\n    tag_189:\n        /* \"#utility.yul\":8646:8726   */\n      tag_190\n        /* \"#utility.yul\":8702:8724   */\n      tag_191\n        /* \"#utility.yul\":8720:8723   */\n      dup6\n        /* \"#utility.yul\":8702:8724   */\n      tag_74\n      jump\t// in\n    tag_191:\n        /* \"#utility.yul\":8692:8700   */\n      dup4\n        /* \"#utility.yul\":8688:8725   */\n      add\n        /* \"#utility.yul\":8675:8686   */\n      dup3\n        /* \"#utility.yul\":8646:8726   */\n      tag_83\n      jump\t// in\n    tag_190:\n        /* \"#utility.yul\":8305:8736   */\n      pop\n      pop\n        /* \"#utility.yul\":8290:8736   */\n    tag_186:\n        /* \"#utility.yul\":8200:8743   */\n      pop\n      pop\n      pop\n      jump\t// out\n        /* \"#utility.yul\":8749:8866   */\n    tag_85:\n        /* \"#utility.yul\":8803:8811   */\n      0x00\n        /* \"#utility.yul\":8853:8858   */\n      dup3\n        /* \"#utility.yul\":8847:8851   */\n      dup3\n        /* \"#utility.yul\":8843:8859   */\n      shr\n        /* \"#utility.yul\":8822:8859   */\n      swap1\n      pop\n        /* \"#utility.yul\":8749:8866   */\n      swap3\n      swap2\n      pop\n      pop\n      jump\t// out\n        /* \"#utility.yul\":8872:9041   */\n    tag_86:\n        /* \"#utility.yul\":8916:8922   */\n      0x00\n        /* \"#utility.yul\":8949:9000   */\n      tag_194\n        /* \"#utility.yul\":8997:8998   */\n      0x00\n        /* \"#utility.yul\":8993:8999   */\n      not\n        /* \"#utility.yul\":8985:8990   */\n      dup5\n        /* \"#utility.yul\":8982:8983   */\n      0x08\n        /* \"#utility.yul\":8978:8991   */\n      mul\n        /* \"#utility.yul\":8949:9000   */\n      tag_85\n      jump\t// in\n    tag_194:\n        /* \"#utility.yul\":8945:9001   */\n      not\n        /* \"#utility.yul\":9030:9034   */\n      dup1\n        /* \"#utility.yul\":9024:9028   */\n      dup4\n        /* \"#utility.yul\":9020:9035   */\n      and\n        /* \"#utility.yul\":9010:9035   */\n      swap2\n      pop\n        /* \"#utility.yul\":8923:9041   */\n      pop\n        /* \"#utility.yul\":8872:9041   */\n      swap3\n      swap2\n      pop\n      pop\n      jump\t// out\n        /* \"#utility.yul\":9046:9341   */\n    tag_87:\n        /* \"#utility.yul\":9122:9126   */\n      0x00\n        /* \"#utility.yul\":9268:9297   */\n      tag_196\n        /* \"#utility.yul\":9293:9296   */\n      dup4\n        /* \"#utility.yul\":9287:9291   */\n      dup4\n        /* \"#utility.yul\":9268:9297   */\n      tag_86\n      jump\t// in\n    tag_196:\n        /* \"#utility.yul\":9260:9297   */\n      swap2\n      pop\n        /* \"#utility.yul\":9330:9333   */\n      dup3\n        /* \"#utility.yul\":9327:9328   */\n      0x02\n        /* \"#utility.yul\":9323:9334   */\n      mul\n        /* \"#utility.yul\":9317:9321   */\n      dup3\n        /* \"#utility.yul\":9314:9335   */\n      or\n        /* \"#utility.yul\":9306:9335   */\n      swap1\n      pop\n        /* \"#utility.yul\":9046:9341   */\n      swap3\n      swap2\n      pop\n      pop\n      jump\t// out\n        /* \"#utility.yul\":9346:10741   */\n    tag_47:\n        /* \"#utility.yul\":9463:9500   */\n      tag_198\n        /* \"#utility.yul\":9496:9499   */\n      dup3\n        /* \"#utility.yul\":9463:9500   */\n      tag_54\n      jump\t// in\n    tag_198:\n        /* \"#utility.yul\":9565:9583   */\n      0xffffffffffffffff\n        /* \"#utility.yul\":9557:9563   */\n      dup2\n        /* \"#utility.yul\":9554:9584   */\n      gt\n        /* \"#utility.yul\":9551:9607   */\n      iszero\n      tag_199\n      jumpi\n        /* \"#utility.yul\":9587:9605   */\n      tag_200\n      tag_65\n      jump\t// in\n    tag_200:\n        /* \"#utility.yul\":9551:9607   */\n    tag_199:\n        /* \"#utility.yul\":9631:9669   */\n      tag_201\n        /* \"#utility.yul\":9663:9667   */\n      dup3\n        /* \"#utility.yul\":9657:9668   */\n      sload\n        /* \"#utility.yul\":9631:9669   */\n      tag_28\n      jump\t// in\n    tag_201:\n        /* \"#utility.yul\":9716:9783   */\n      tag_202\n        /* \"#utility.yul\":9776:9782   */\n      dup3\n        /* \"#utility.yul\":9768:9774   */\n      dup3\n        /* \"#utility.yul\":9762:9766   */\n      dup6\n        /* \"#utility.yul\":9716:9783   */\n      tag_84\n      jump\t// in\n    tag_202:\n        /* \"#utility.yul\":9810:9811   */\n      0x00\n        /* \"#utility.yul\":9834:9838   */\n      0x20\n        /* \"#utility.yul\":9821:9838   */\n      swap1\n      pop\n        /* \"#utility.yul\":9866:9868   */\n      0x1f\n        /* \"#utility.yul\":9858:9864   */\n      dup4\n        /* \"#utility.yul\":9855:9869   */\n      gt\n        /* \"#utility.yul\":9883:9884   */\n      0x01\n        /* \"#utility.yul\":9878:10496   */\n      dup2\n      eq\n      tag_204\n      jumpi\n        /* \"#utility.yul\":10540:10541   */\n      0x00\n        /* \"#utility.yul\":10557:10563   */\n      dup5\n        /* \"#utility.yul\":10554:10631   */\n      iszero\n      tag_205\n      jumpi\n        /* \"#utility.yul\":10606:10615   */\n      dup3\n        /* \"#utility.yul\":10601:10604   */\n      dup8\n        /* \"#utility.yul\":10597:10616   */\n      add\n        /* \"#utility.yul\":10591:10617   */\n      mload\n        /* \"#utility.yul\":10582:10617   */\n      swap1\n      pop\n        /* \"#utility.yul\":10554:10631   */\n    tag_205:\n        /* \"#utility.yul\":10657:10724   */\n      tag_206\n        /* \"#utility.yul\":10717:10723   */\n      dup6\n        /* \"#utility.yul\":10710:10715   */\n      dup3\n        /* \"#utility.yul\":10657:10724   */\n      tag_87\n      jump\t// in\n    tag_206:\n        /* \"#utility.yul\":10651:10655   */\n      dup7\n        /* \"#utility.yul\":10644:10725   */\n      sstore\n        /* \"#utility.yul\":10513:10735   */\n      pop\n        /* \"#utility.yul\":9848:10735   */\n      jump(tag_203)\n        /* \"#utility.yul\":9878:10496   */\n    tag_204:\n        /* \"#utility.yul\":9930:9934   */\n      0x1f\n        /* \"#utility.yul\":9926:9935   */\n      not\n        /* \"#utility.yul\":9918:9924   */\n      dup5\n        /* \"#utility.yul\":9914:9936   */\n      and\n        /* \"#utility.yul\":9964:10001   */\n      tag_207\n        /* \"#utility.yul\":9996:10000   */\n      dup7\n        /* \"#utility.yul\":9964:10001   */\n      tag_73\n      jump\t// in\n    tag_207:\n        /* \"#utility.yul\":10023:10024   */\n      0x00\n        /* \"#utility.yul\":10037:10245   */\n    tag_208:\n        /* \"#utility.yul\":10051:10058   */\n      dup3\n        /* \"#utility.yul\":10048:10049   */\n      dup2\n        /* \"#utility.yul\":10045:10059   */\n      lt\n        /* \"#utility.yul\":10037:10245   */\n      iszero\n      tag_210\n      jumpi\n        /* \"#utility.yul\":10130:10139   */\n      dup5\n        /* \"#utility.yul\":10125:10128   */\n      dup10\n        /* \"#utility.yul\":10121:10140   */\n      add\n        /* \"#utility.yul\":10115:10141   */\n      mload\n        /* \"#utility.yul\":10107:10113   */\n      dup3\n        /* \"#utility.yul\":10100:10142   */\n      sstore\n        /* \"#utility.yul\":10181:10182   */\n      0x01\n        /* \"#utility.yul\":10173:10179   */\n      dup3\n        /* \"#utility.yul\":10169:10183   */\n      add\n        /* \"#utility.yul\":10159:10183   */\n      swap2\n      pop\n        /* \"#utility.yul\":10228:10230   */\n      0x20\n        /* \"#utility.yul\":10217:10226   */\n      dup6\n        /* \"#utility.yul\":10213:10231   */\n      add\n        /* \"#utility.yul\":10200:10231   */\n      swap5\n      pop\n        /* \"#utility.yul\":10074:10078   */\n      0x20\n        /* \"#utility.yul\":10071:10072   */\n      dup2\n        /* \"#utility.yul\":10067:10079   */\n      add\n        /* \"#utility.yul\":10062:10079   */\n      swap1\n      pop\n        /* \"#utility.yul\":10037:10245   */\n      jump(tag_208)\n    tag_210:\n        /* \"#utility.yul\":10273:10279   */\n      dup7\n        /* \"#utility.yul\":10264:10271   */\n      dup4\n        /* \"#utility.yul\":10261:10280   */\n      lt\n        /* \"#utility.yul\":10258:10437   */\n      iszero\n      tag_211\n      jumpi\n        /* \"#utility.yul\":10331:10340   */\n      dup5\n        /* \"#utility.yul\":10326:10329   */\n      dup10\n        /* \"#utility.yul\":10322:10341   */\n      add\n        /* \"#utility.yul\":10316:10342   */\n      mload\n        /* \"#utility.yul\":10374:10422   */\n      tag_212\n        /* \"#utility.yul\":10416:10420   */\n      0x1f\n        /* \"#utility.yul\":10408:10414   */\n      dup10\n        /* \"#utility.yul\":10404:10421   */\n      and\n        /* \"#utility.yul\":10393:10402   */\n      dup3\n        /* \"#utility.yul\":10374:10422   */\n      tag_86\n      jump\t// in\n    tag_212:\n        /* \"#utility.yul\":10366:10372   */\n      dup4\n        /* \"#utility.yul\":10359:10423   */\n      sstore\n        /* \"#utility.yul\":10281:10437   */\n      pop\n        /* \"#utility.yul\":10258:10437   */\n    tag_211:\n        /* \"#utility.yul\":10483:10484   */\n      0x01\n        /* \"#utility.yul\":10479:10480   */\n      0x02\n        /* \"#utility.yul\":10471:10477   */\n      dup9\n        /* \"#utility.yul\":10467:10481   */\n      mul\n        /* \"#utility.yul\":10463:10485   */\n      add\n        /* \"#utility.yul\":10457:10461   */\n      dup9\n        /* \"#utility.yul\":10450:10486   */\n      sstore\n        /* \"#utility.yul\":9885:10496   */\n      pop\n      pop\n      pop\n        /* \"#utility.yul\":9848:10735   */\n    tag_203:\n      pop\n        /* \"#utility.yul\":9438:10741   */\n      pop\n      pop\n      pop\n        /* \"#utility.yul\":9346:10741   */\n      pop\n      pop\n      jump\t// out\n\n    auxdata: 0xa26469706673582212208e868b6601becfdc9832243c52ab7ebefa30cc7d5655d6f73c1ba882b8b74eff64736f6c634300081a0033\n}\n",
				"bytecode": {
					"linkReferences": {},
					"object": "6080604052348015600e575f80fd5b506109718061001c5f395ff3fe608060405234801561000f575f80fd5b506004361061004a575f3560e01c80630b1e7f831461004e57806340731c241461007f5780635fe226b4146100b0578063c5719463146100ce575b5f80fd5b610068600480360381019061006391906103a2565b6100ea565b60405161007692919061047c565b60405180910390f35b610099600480360381019061009491906103a2565b6101bd565b6040516100a792919061047c565b60405180910390f35b6100b861029d565b6040516100c591906104b9565b60405180910390f35b6100e860048036038101906100e391906105fe565b6102a8565b005b5f81815481106100f8575f80fd5b905f5260205f2090600202015f91509050805f01805461011790610672565b80601f016020809104026020016040519081016040528092919081815260200182805461014390610672565b801561018e5780601f106101655761010080835404028352916020019161018e565b820191905f5260205f20905b81548152906001019060200180831161017157829003601f168201915b505050505090806001015f9054906101000a900473ffffffffffffffffffffffffffffffffffffffff16905082565b60605f805f84815481106101d4576101d36106a2565b5b905f5260205f2090600202019050805f01816001015f9054906101000a900473ffffffffffffffffffffffffffffffffffffffff1681805461021590610672565b80601f016020809104026020016040519081016040528092919081815260200182805461024190610672565b801561028c5780601f106102635761010080835404028352916020019161028c565b820191905f5260205f20905b81548152906001019060200180831161026f57829003601f168201915b505050505091509250925050915091565b5f8080549050905090565b5f60405180604001604052808381526020013373ffffffffffffffffffffffffffffffffffffffff1681525090505f81908060018154018082558091505060019003905f5260205f2090600202015f909190919091505f820151815f019081610311919061086c565b506020820151816001015f6101000a81548173ffffffffffffffffffffffffffffffffffffffff021916908373ffffffffffffffffffffffffffffffffffffffff16021790555050505050565b5f604051905090565b5f80fd5b5f80fd5b5f819050919050565b6103818161036f565b811461038b575f80fd5b50565b5f8135905061039c81610378565b92915050565b5f602082840312156103b7576103b6610367565b5b5f6103c48482850161038e565b91505092915050565b5f81519050919050565b5f82825260208201905092915050565b8281835e5f83830152505050565b5f601f19601f8301169050919050565b5f61040f826103cd565b61041981856103d7565b93506104298185602086016103e7565b610432816103f5565b840191505092915050565b5f73ffffffffffffffffffffffffffffffffffffffff82169050919050565b5f6104668261043d565b9050919050565b6104768161045c565b82525050565b5f6040820190508181035f8301526104948185610405565b90506104a3602083018461046d565b9392505050565b6104b38161036f565b82525050565b5f6020820190506104cc5f8301846104aa565b92915050565b5f80fd5b5f80fd5b7f4e487b71000000000000000000000000000000000000000000000000000000005f52604160045260245ffd5b610510826103f5565b810181811067ffffffffffffffff8211171561052f5761052e6104da565b5b80604052505050565b5f61054161035e565b905061054d8282610507565b919050565b5f67ffffffffffffffff82111561056c5761056b6104da565b5b610575826103f5565b9050602081019050919050565b828183375f83830152505050565b5f6105a261059d84610552565b610538565b9050828152602081018484840111156105be576105bd6104d6565b5b6105c9848285610582565b509392505050565b5f82601f8301126105e5576105e46104d2565b5b81356105f5848260208601610590565b91505092915050565b5f6020828403121561061357610612610367565b5b5f82013567ffffffffffffffff8111156106305761062f61036b565b5b61063c848285016105d1565b91505092915050565b7f4e487b71000000000000000000000000000000000000000000000000000000005f52602260045260245ffd5b5f600282049050600182168061068957607f821691505b60208210810361069c5761069b610645565b5b50919050565b7f4e487b71000000000000000000000000000000000000000000000000000000005f52603260045260245ffd5b5f819050815f5260205f209050919050565b5f6020601f8301049050919050565b5f82821b905092915050565b5f6008830261072b7fffffffffffffffffffffffffffffffffffffffffffffffffffffffffffffffff826106f0565b61073586836106f0565b95508019841693508086168417925050509392505050565b5f819050919050565b5f61077061076b6107668461036f565b61074d565b61036f565b9050919050565b5f819050919050565b61078983610756565b61079d61079582610777565b8484546106fc565b825550505050565b5f90565b6107b16107a5565b6107bc818484610780565b505050565b5b818110156107df576107d45f826107a9565b6001810190506107c2565b5050565b601f821115610824576107f5816106cf565b6107fe846106e1565b8101602085101561080d578190505b610821610819856106e1565b8301826107c1565b50505b505050565b5f82821c905092915050565b5f6108445f1984600802610829565b1980831691505092915050565b5f61085c8383610835565b9150826002028217905092915050565b610875826103cd565b67ffffffffffffffff81111561088e5761088d6104da565b5b6108988254610672565b6108a38282856107e3565b5f60209050601f8311600181146108d4575f84156108c2578287015190505b6108cc8582610851565b865550610933565b601f1984166108e2866106cf565b5f5b82811015610909578489015182556001820191506020850194506020810190506108e4565b868310156109265784890151610922601f891682610835565b8355505b6001600288020188555050505b50505050505056fea26469706673582212208e868b6601becfdc9832243c52ab7ebefa30cc7d5655d6f73c1ba882b8b74eff64736f6c634300081a0033",
					"opcodes": "PUSH1 0x80 PUSH1 0x40 MSTORE CALLVALUE DUP1 ISZERO PUSH1 0xE JUMPI PUSH0 DUP1 REVERT JUMPDEST POP PUSH2 0x971 DUP1 PUSH2 0x1C PUSH0 CODECOPY PUSH0 RETURN INVALID PUSH1 0x80 PUSH1 0x40 MSTORE CALLVALUE DUP1 ISZERO PUSH2 0xF JUMPI PUSH0 DUP1 REVERT JUMPDEST POP PUSH1 0x4 CALLDATASIZE LT PUSH2 0x4A JUMPI PUSH0 CALLDATALOAD PUSH1 0xE0 SHR DUP1 PUSH4 0xB1E7F83 EQ PUSH2 0x4E JUMPI DUP1 PUSH4 0x40731C24 EQ PUSH2 0x7F JUMPI DUP1 PUSH4 0x5FE226B4 EQ PUSH2 0xB0 JUMPI DUP1 PUSH4 0xC5719463 EQ PUSH2 0xCE JUMPI JUMPDEST PUSH0 DUP1 REVERT JUMPDEST PUSH2 0x68 PUSH1 0x4 DUP1 CALLDATASIZE SUB DUP2 ADD SWAP1 PUSH2 0x63 SWAP2 SWAP1 PUSH2 0x3A2 JUMP JUMPDEST PUSH2 0xEA JUMP JUMPDEST PUSH1 0x40 MLOAD PUSH2 0x76 SWAP3 SWAP2 SWAP1 PUSH2 0x47C JUMP JUMPDEST PUSH1 0x40 MLOAD DUP1 SWAP2 SUB SWAP1 RETURN JUMPDEST PUSH2 0x99 PUSH1 0x4 DUP1 CALLDATASIZE SUB DUP2 ADD SWAP1 PUSH2 0x94 SWAP2 SWAP1 PUSH2 0x3A2 JUMP JUMPDEST PUSH2 0x1BD JUMP JUMPDEST PUSH1 0x40 MLOAD PUSH2 0xA7 SWAP3 SWAP2 SWAP1 PUSH2 0x47C JUMP JUMPDEST PUSH1 0x40 MLOAD DUP1 SWAP2 SUB SWAP1 RETURN JUMPDEST PUSH2 0xB8 PUSH2 0x29D JUMP JUMPDEST PUSH1 0x40 MLOAD PUSH2 0xC5 SWAP2 SWAP1 PUSH2 0x4B9 JUMP JUMPDEST PUSH1 0x40 MLOAD DUP1 SWAP2 SUB SWAP1 RETURN JUMPDEST PUSH2 0xE8 PUSH1 0x4 DUP1 CALLDATASIZE SUB DUP2 ADD SWAP1 PUSH2 0xE3 SWAP2 SWAP1 PUSH2 0x5FE JUMP JUMPDEST PUSH2 0x2A8 JUMP JUMPDEST STOP JUMPDEST PUSH0 DUP2 DUP2 SLOAD DUP2 LT PUSH2 0xF8 JUMPI PUSH0 DUP1 REVERT JUMPDEST SWAP1 PUSH0 MSTORE PUSH1 0x20 PUSH0 KECCAK256 SWAP1 PUSH1 0x2 MUL ADD PUSH0 SWAP2 POP SWAP1 POP DUP1 PUSH0 ADD DUP1 SLOAD PUSH2 0x117 SWAP1 PUSH2 0x672 JUMP JUMPDEST DUP1 PUSH1 0x1F ADD PUSH1 0x20 DUP1 SWAP2 DIV MUL PUSH1 0x20 ADD PUSH1 0x40 MLOAD SWAP1 DUP2 ADD PUSH1 0x40 MSTORE DUP1 SWAP3 SWAP2 SWAP1 DUP2 DUP2 MSTORE PUSH1 0x20 ADD DUP3 DUP1 SLOAD PUSH2 0x143 SWAP1 PUSH2 0x672 JUMP JUMPDEST DUP1 ISZERO PUSH2 0x18E JUMPI DUP1 PUSH1 0x1F LT PUSH2 0x165 JUMPI PUSH2 0x100 DUP1 DUP4 SLOAD DIV MUL DUP4 MSTORE SWAP2 PUSH1 0x20 ADD SWAP2 PUSH2 0x18E JUMP JUMPDEST DUP3 ADD SWAP2 SWAP1 PUSH0 MSTORE PUSH1 0x20 PUSH0 KECCAK256 SWAP1 JUMPDEST DUP2 SLOAD DUP2 MSTORE SWAP1 PUSH1 0x1 ADD SWAP1 PUSH1 0x20 ADD DUP1 DUP4 GT PUSH2 0x171 JUMPI DUP3 SWAP1 SUB PUSH1 0x1F AND DUP3 ADD SWAP2 JUMPDEST POP POP POP POP POP SWAP1 DUP1 PUSH1 0x1 ADD PUSH0 SWAP1 SLOAD SWAP1 PUSH2 0x100 EXP SWAP1 DIV PUSH20 0xFFFFFFFFFFFFFFFFFFFFFFFFFFFFFFFFFFFFFFFF AND SWAP1 POP DUP3 JUMP JUMPDEST PUSH1 0x60 PUSH0 DUP1 PUSH0 DUP5 DUP2 SLOAD DUP2 LT PUSH2 0x1D4 JUMPI PUSH2 0x1D3 PUSH2 0x6A2 JUMP JUMPDEST JUMPDEST SWAP1 PUSH0 MSTORE PUSH1 0x20 PUSH0 KECCAK256 SWAP1 PUSH1 0x2 MUL ADD SWAP1 POP DUP1 PUSH0 ADD DUP2 PUSH1 0x1 ADD PUSH0 SWAP1 SLOAD SWAP1 PUSH2 0x100 EXP SWAP1 DIV PUSH20 0xFFFFFFFFFFFFFFFFFFFFFFFFFFFFFFFFFFFFFFFF AND DUP2 DUP1 SLOAD PUSH2 0x215 SWAP1 PUSH2 0x672 JUMP JUMPDEST DUP1 PUSH1 0x1F ADD PUSH1 0x20 DUP1 SWAP2 DIV MUL PUSH1 0x20 ADD PUSH1 0x40 MLOAD SWAP1 DUP2 ADD PUSH1 0x40 MSTORE DUP1 SWAP3 SWAP2 SWAP1 DUP2 DUP2 MSTORE PUSH1 0x20 ADD DUP3 DUP1 SLOAD PUSH2 0x241 SWAP1 PUSH2 0x672 JUMP JUMPDEST DUP1 ISZERO PUSH2 0x28C JUMPI DUP1 PUSH1 0x1F LT PUSH2 0x263 JUMPI PUSH2 0x100 DUP1 DUP4 SLOAD DIV MUL DUP4 MSTORE SWAP2 PUSH1 0x20 ADD SWAP2 PUSH2 0x28C JUMP JUMPDEST DUP3 ADD SWAP2 SWAP1 PUSH0 MSTORE PUSH1 0x20 PUSH0 KECCAK256 SWAP1 JUMPDEST DUP2 SLOAD DUP2 MSTORE SWAP1 PUSH1 0x1 ADD SWAP1 PUSH1 0x20 ADD DUP1 DUP4 GT PUSH2 0x26F JUMPI DUP3 SWAP1 SUB PUSH1 0x1F AND DUP3 ADD SWAP2 JUMPDEST POP POP POP POP POP SWAP2 POP SWAP3 POP SWAP3 POP POP SWAP2 POP SWAP2 JUMP JUMPDEST PUSH0 DUP1 DUP1 SLOAD SWAP1 POP SWAP1 POP SWAP1 JUMP JUMPDEST PUSH0 PUSH1 0x40 MLOAD DUP1 PUSH1 0x40 ADD PUSH1 0x40 MSTORE DUP1 DUP4 DUP2 MSTORE PUSH1 0x20 ADD CALLER PUSH20 0xFFFFFFFFFFFFFFFFFFFFFFFFFFFFFFFFFFFFFFFF AND DUP2 MSTORE POP SWAP1 POP PUSH0 DUP2 SWAP1 DUP1 PUSH1 0x1 DUP2 SLOAD ADD DUP1 DUP3 SSTORE DUP1 SWAP2 POP POP PUSH1 0x1 SWAP1 SUB SWAP1 PUSH0 MSTORE PUSH1 0x20 PUSH0 KECCAK256 SWAP1 PUSH1 0x2 MUL ADD PUSH0 SWAP1 SWAP2 SWAP1 SWAP2 SWAP1 SWAP2 POP PUSH0 DUP3 ADD MLOAD DUP2 PUSH0 ADD SWAP1 DUP2 PUSH2 0x311 SWAP2 SWAP1 PUSH2 0x86C JUMP JUMPDEST POP PUSH1 0x20 DUP3 ADD MLOAD DUP2 PUSH1 0x1 ADD PUSH0 PUSH2 0x100 EXP DUP2 SLOAD DUP2 PUSH20 0xFFFFFFFFFFFFFFFFFFFFFFFFFFFFFFFFFFFFFFFF MUL NOT AND SWAP1 DUP4 PUSH20 0xFFFFFFFFFFFFFFFFFFFFFFFFFFFFFFFFFFFFFFFF AND MUL OR SWAP1 SSTORE POP POP POP POP POP JUMP JUMPDEST PUSH0 PUSH1 0x40 MLOAD SWAP1 POP SWAP1 JUMP JUMPDEST PUSH0 DUP1 REVERT JUMPDEST PUSH0 DUP1 REVERT JUMPDEST PUSH0 DUP2 SWAP1 POP SWAP2 SWAP1 POP JUMP JUMPDEST PUSH2 0x381 DUP2 PUSH2 0x36F JUMP JUMPDEST DUP2 EQ PUSH2 0x38B JUMPI PUSH0 DUP1 REVERT JUMPDEST POP JUMP JUMPDEST PUSH0 DUP2 CALLDATALOAD SWAP1 POP PUSH2 0x39C DUP2 PUSH2 0x378 JUMP JUMPDEST SWAP3 SWAP2 POP POP JUMP JUMPDEST PUSH0 PUSH1 0x20 DUP3 DUP5 SUB SLT ISZERO PUSH2 0x3B7 JUMPI PUSH2 0x3B6 PUSH2 0x367 JUMP JUMPDEST JUMPDEST PUSH0 PUSH2 0x3C4 DUP5 DUP3 DUP6 ADD PUSH2 0x38E JUMP JUMPDEST SWAP2 POP POP SWAP3 SWAP2 POP POP JUMP JUMPDEST PUSH0 DUP2 MLOAD SWAP1 POP SWAP2 SWAP1 POP JUMP JUMPDEST PUSH0 DUP3 DUP3 MSTORE PUSH1 0x20 DUP3 ADD SWAP1 POP SWAP3 SWAP2 POP POP JUMP JUMPDEST DUP3 DUP2 DUP4 MCOPY PUSH0 DUP4 DUP4 ADD MSTORE POP POP POP JUMP JUMPDEST PUSH0 PUSH1 0x1F NOT PUSH1 0x1F DUP4 ADD AND SWAP1 POP SWAP2 SWAP1 POP JUMP JUMPDEST PUSH0 PUSH2 0x40F DUP3 PUSH2 0x3CD JUMP JUMPDEST PUSH2 0x419 DUP2 DUP6 PUSH2 0x3D7 JUMP JUMPDEST SWAP4 POP PUSH2 0x429 DUP2 DUP6 PUSH1 0x20 DUP7 ADD PUSH2 0x3E7 JUMP JUMPDEST PUSH2 0x432 DUP2 PUSH2 0x3F5 JUMP JUMPDEST DUP5 ADD SWAP2 POP POP SWAP3 SWAP2 POP POP JUMP JUMPDEST PUSH0 PUSH20 0xFFFFFFFFFFFFFFFFFFFFFFFFFFFFFFFFFFFFFFFF DUP3 AND SWAP1 POP SWAP2 SWAP1 POP JUMP JUMPDEST PUSH0 PUSH2 0x466 DUP3 PUSH2 0x43D JUMP JUMPDEST SWAP1 POP SWAP2 SWAP1 POP JUMP JUMPDEST PUSH2 0x476 DUP2 PUSH2 0x45C JUMP JUMPDEST DUP3 MSTORE POP POP JUMP JUMPDEST PUSH0 PUSH1 0x40 DUP3 ADD SWAP1 POP DUP2 DUP2 SUB PUSH0 DUP4 ADD MSTORE PUSH2 0x494 DUP2 DUP6 PUSH2 0x405 JUMP JUMPDEST SWAP1 POP PUSH2 0x4A3 PUSH1 0x20 DUP4 ADD DUP5 PUSH2 0x46D JUMP JUMPDEST SWAP4 SWAP3 POP POP POP JUMP JUMPDEST PUSH2 0x4B3 DUP2 PUSH2 0x36F JUMP JUMPDEST DUP3 MSTORE POP POP JUMP JUMPDEST PUSH0 PUSH1 0x20 DUP3 ADD SWAP1 POP PUSH2 0x4CC PUSH0 DUP4 ADD DUP5 PUSH2 0x4AA JUMP JUMPDEST SWAP3 SWAP2 POP POP JUMP JUMPDEST PUSH0 DUP1 REVERT JUMPDEST PUSH0 DUP1 REVERT JUMPDEST PUSH32 0x4E487B7100000000000000000000000000000000000000000000000000000000 PUSH0 MSTORE PUSH1 0x41 PUSH1 0x4 MSTORE PUSH1 0x24 PUSH0 REVERT JUMPDEST PUSH2 0x510 DUP3 PUSH2 0x3F5 JUMP JUMPDEST DUP2 ADD DUP2 DUP2 LT PUSH8 0xFFFFFFFFFFFFFFFF DUP3 GT OR ISZERO PUSH2 0x52F JUMPI PUSH2 0x52E PUSH2 0x4DA JUMP JUMPDEST JUMPDEST DUP1 PUSH1 0x40 MSTORE POP POP POP JUMP JUMPDEST PUSH0 PUSH2 0x541 PUSH2 0x35E JUMP JUMPDEST SWAP1 POP PUSH2 0x54D DUP3 DUP3 PUSH2 0x507 JUMP JUMPDEST SWAP2 SWAP1 POP JUMP JUMPDEST PUSH0 PUSH8 0xFFFFFFFFFFFFFFFF DUP3 GT ISZERO PUSH2 0x56C JUMPI PUSH2 0x56B PUSH2 0x4DA JUMP JUMPDEST JUMPDEST PUSH2 0x575 DUP3 PUSH2 0x3F5 JUMP JUMPDEST SWAP1 POP PUSH1 0x20 DUP2 ADD SWAP1 POP SWAP2 SWAP1 POP JUMP JUMPDEST DUP3 DUP2 DUP4 CALLDATACOPY PUSH0 DUP4 DUP4 ADD MSTORE POP POP POP JUMP JUMPDEST PUSH0 PUSH2 0x5A2 PUSH2 0x59D DUP5 PUSH2 0x552 JUMP JUMPDEST PUSH2 0x538 JUMP JUMPDEST SWAP1 POP DUP3 DUP2 MSTORE PUSH1 0x20 DUP2 ADD DUP5 DUP5 DUP5 ADD GT ISZERO PUSH2 0x5BE JUMPI PUSH2 0x5BD PUSH2 0x4D6 JUMP JUMPDEST JUMPDEST PUSH2 0x5C9 DUP5 DUP3 DUP6 PUSH2 0x582 JUMP JUMPDEST POP SWAP4 SWAP3 POP POP POP JUMP JUMPDEST PUSH0 DUP3 PUSH1 0x1F DUP4 ADD SLT PUSH2 0x5E5 JUMPI PUSH2 0x5E4 PUSH2 0x4D2 JUMP JUMPDEST JUMPDEST DUP2 CALLDATALOAD PUSH2 0x5F5 DUP5 DUP3 PUSH1 0x20 DUP7 ADD PUSH2 0x590 JUMP JUMPDEST SWAP2 POP POP SWAP3 SWAP2 POP POP JUMP JUMPDEST PUSH0 PUSH1 0x20 DUP3 DUP5 SUB SLT ISZERO PUSH2 0x613 JUMPI PUSH2 0x612 PUSH2 0x367 JUMP JUMPDEST JUMPDEST PUSH0 DUP3 ADD CALLDATALOAD PUSH8 0xFFFFFFFFFFFFFFFF DUP2 GT ISZERO PUSH2 0x630 JUMPI PUSH2 0x62F PUSH2 0x36B JUMP JUMPDEST JUMPDEST PUSH2 0x63C DUP5 DUP3 DUP6 ADD PUSH2 0x5D1 JUMP JUMPDEST SWAP2 POP POP SWAP3 SWAP2 POP POP JUMP JUMPDEST PUSH32 0x4E487B7100000000000000000000000000000000000000000000000000000000 PUSH0 MSTORE PUSH1 0x22 PUSH1 0x4 MSTORE PUSH1 0x24 PUSH0 REVERT JUMPDEST PUSH0 PUSH1 0x2 DUP3 DIV SWAP1 POP PUSH1 0x1 DUP3 AND DUP1 PUSH2 0x689 JUMPI PUSH1 0x7F DUP3 AND SWAP2 POP JUMPDEST PUSH1 0x20 DUP3 LT DUP2 SUB PUSH2 0x69C JUMPI PUSH2 0x69B PUSH2 0x645 JUMP JUMPDEST JUMPDEST POP SWAP2 SWAP1 POP JUMP JUMPDEST PUSH32 0x4E487B7100000000000000000000000000000000000000000000000000000000 PUSH0 MSTORE PUSH1 0x32 PUSH1 0x4 MSTORE PUSH1 0x24 PUSH0 REVERT JUMPDEST PUSH0 DUP2 SWAP1 POP DUP2 PUSH0 MSTORE PUSH1 0x20 PUSH0 KECCAK256 SWAP1 POP SWAP2 SWAP1 POP JUMP JUMPDEST PUSH0 PUSH1 0x20 PUSH1 0x1F DUP4 ADD DIV SWAP1 POP SWAP2 SWAP1 POP JUMP JUMPDEST PUSH0 DUP3 DUP3 SHL SWAP1 POP SWAP3 SWAP2 POP POP JUMP JUMPDEST PUSH0 PUSH1 0x8 DUP4 MUL PUSH2 0x72B PUSH32 0xFFFFFFFFFFFFFFFFFFFFFFFFFFFFFFFFFFFFFFFFFFFFFFFFFFFFFFFFFFFFFFFF DUP3 PUSH2 0x6F0 JUMP JUMPDEST PUSH2 0x735 DUP7 DUP4 PUSH2 0x6F0 JUMP JUMPDEST SWAP6 POP DUP1 NOT DUP5 AND SWAP4 POP DUP1 DUP7 AND DUP5 OR SWAP3 POP POP POP SWAP4 SWAP3 POP POP POP JUMP JUMPDEST PUSH0 DUP2 SWAP1 POP SWAP2 SWAP1 POP JUMP JUMPDEST PUSH0 PUSH2 0x770 PUSH2 0x76B PUSH2 0x766 DUP5 PUSH2 0x36F JUMP JUMPDEST PUSH2 0x74D JUMP JUMPDEST PUSH2 0x36F JUMP JUMPDEST SWAP1 POP SWAP2 SWAP1 POP JUMP JUMPDEST PUSH0 DUP2 SWAP1 POP SWAP2 SWAP1 POP JUMP JUMPDEST PUSH2 0x789 DUP4 PUSH2 0x756 JUMP JUMPDEST PUSH2 0x79D PUSH2 0x795 DUP3 PUSH2 0x777 JUMP JUMPDEST DUP5 DUP5 SLOAD PUSH2 0x6FC JUMP JUMPDEST DUP3 SSTORE POP POP POP POP JUMP JUMPDEST PUSH0 SWAP1 JUMP JUMPDEST PUSH2 0x7B1 PUSH2 0x7A5 JUMP JUMPDEST PUSH2 0x7BC DUP2 DUP5 DUP5 PUSH2 0x780 JUMP JUMPDEST POP POP POP JUMP JUMPDEST JUMPDEST DUP2 DUP2 LT ISZERO PUSH2 0x7DF JUMPI PUSH2 0x7D4 PUSH0 DUP3 PUSH2 0x7A9 JUMP JUMPDEST PUSH1 0x1 DUP2 ADD SWAP1 POP PUSH2 0x7C2 JUMP JUMPDEST POP POP JUMP JUMPDEST PUSH1 0x1F DUP3 GT ISZERO PUSH2 0x824 JUMPI PUSH2 0x7F5 DUP2 PUSH2 0x6CF JUMP JUMPDEST PUSH2 0x7FE DUP5 PUSH2 0x6E1 JUMP JUMPDEST DUP2 ADD PUSH1 0x20 DUP6 LT ISZERO PUSH2 0x80D JUMPI DUP2 SWAP1 POP JUMPDEST PUSH2 0x821 PUSH2 0x819 DUP6 PUSH2 0x6E1 JUMP JUMPDEST DUP4 ADD DUP3 PUSH2 0x7C1 JUMP JUMPDEST POP POP JUMPDEST POP POP POP JUMP JUMPDEST PUSH0 DUP3 DUP3 SHR SWAP1 POP SWAP3 SWAP2 POP POP JUMP JUMPDEST PUSH0 PUSH2 0x844 PUSH0 NOT DUP5 PUSH1 0x8 MUL PUSH2 0x829 JUMP JUMPDEST NOT DUP1 DUP4 AND SWAP2 POP POP SWAP3 SWAP2 POP POP JUMP JUMPDEST PUSH0 PUSH2 0x85C DUP4 DUP4 PUSH2 0x835 JUMP JUMPDEST SWAP2 POP DUP3 PUSH1 0x2 MUL DUP3 OR SWAP1 POP SWAP3 SWAP2 POP POP JUMP JUMPDEST PUSH2 0x875 DUP3 PUSH2 0x3CD JUMP JUMPDEST PUSH8 0xFFFFFFFFFFFFFFFF DUP2 GT ISZERO PUSH2 0x88E JUMPI PUSH2 0x88D PUSH2 0x4DA JUMP JUMPDEST JUMPDEST PUSH2 0x898 DUP3 SLOAD PUSH2 0x672 JUMP JUMPDEST PUSH2 0x8A3 DUP3 DUP3 DUP6 PUSH2 0x7E3 JUMP JUMPDEST PUSH0 PUSH1 0x20 SWAP1 POP PUSH1 0x1F DUP4 GT PUSH1 0x1 DUP2 EQ PUSH2 0x8D4 JUMPI PUSH0 DUP5 ISZERO PUSH2 0x8C2 JUMPI DUP3 DUP8 ADD MLOAD SWAP1 POP JUMPDEST PUSH2 0x8CC DUP6 DUP3 PUSH2 0x851 JUMP JUMPDEST DUP7 SSTORE POP PUSH2 0x933 JUMP JUMPDEST PUSH1 0x1F NOT DUP5 AND PUSH2 0x8E2 DUP7 PUSH2 0x6CF JUMP JUMPDEST PUSH0 JUMPDEST DUP3 DUP2 LT ISZERO PUSH2 0x909 JUMPI DUP5 DUP10 ADD MLOAD DUP3 SSTORE PUSH1 0x1 DUP3 ADD SWAP2 POP PUSH1 0x20 DUP6 ADD SWAP5 POP PUSH1 0x20 DUP2 ADD SWAP1 POP PUSH2 0x8E4 JUMP JUMPDEST DUP7 DUP4 LT ISZERO PUSH2 0x926 JUMPI DUP5 DUP10 ADD MLOAD PUSH2 0x922 PUSH1 0x1F DUP10 AND DUP3 PUSH2 0x835 JUMP JUMPDEST DUP4 SSTORE POP JUMPDEST PUSH1 0x1 PUSH1 0x2 DUP9 MUL ADD DUP9 SSTORE POP POP POP JUMPDEST POP POP POP POP POP POP JUMP INVALID LOG2 PUSH5 0x6970667358 0x22 SLT KECCAK256 DUP15 DUP7 DUP12 PUSH7 0x1BECFDC983224 EXTCODECOPY MSTORE 0xAB PUSH31 0xBEFA30CC7D5655D6F73C1BA882B8B74EFF64736F6C634300081A0033000000 "
				},
				"gasEstimates": {
					"creation": {
						"codeDepositCost": "483400",
						"executionCost": "516",
						"totalCost": "483916"
					},
					"external": {
						"getPost(uint256)": "infinite",
						"getTotalPosts()": "2462",
						"posts(uint256)": "infinite",
						"publishPost(string)": "infinite"
					}
				},
				"methodIdentifiers": {
					"getPost(uint256)": "40731c24",
					"getTotalPosts()": "5fe226b4",
					"posts(uint256)": "0b1e7f83",
					"publishPost(string)": "c5719463"
				}
			},
			"storageLayout": {
				"storage": [
					{
						"astId": 10,
						"contract": "MiniSocial.sol:MiniSocial",
						"label": "posts",
						"offset": 0,
						"slot": "0",
						"type": "t_array(t_struct(Post)6_storage)dyn_storage"
					}
				],
				"types": {
					"t_address": {
						"encoding": "inplace",
						"label": "address",
						"numberOfBytes": "20"
					},
					"t_array(t_struct(Post)6_storage)dyn_storage": {
						"base": "t_struct(Post)6_storage",
						"encoding": "dynamic_array",
						"label": "struct MiniSocial.Post[]",
						"numberOfBytes": "32"
					},
					"t_string_storage": {
						"encoding": "bytes",
						"label": "string",
						"numberOfBytes": "32"
					},
					"t_struct(Post)6_storage": {
						"encoding": "inplace",
						"label": "struct MiniSocial.Post",
						"members": [
							{
								"astId": 3,
								"contract": "MiniSocial.sol:MiniSocial",
								"label": "message",
								"offset": 0,
								"slot": "0",
								"type": "t_string_storage"
							},
							{
								"astId": 5,
								"contract": "MiniSocial.sol:MiniSocial",
								"label": "author",
								"offset": 0,
								"slot": "1",
								"type": "t_address"
							}
						],
						"numberOfBytes": "64"
					}
				}
			},
			"userdoc": {
				"kind": "user",
				"methods": {},
				"version": 1
			}
		}
	}
}